:020000040800F2
:1000000000C00020F9020008FF02000803030008F6
:100010001B0300081F03000837030008000000004E
:100020000000000000000000000000004F03000876
:100030005303000800000000570300085B0300089A
:1000400069030008690300086903000869030008E0
:1000500069030008690300086903000869030008D0
:1000600069030008690300086903000869030008C0
:1000700069030008690300086903000869030008B0
:1000800069030008690300086903000869030008A0
:100090006903000869030008690300086903000890
:1000A0006903000869030008690300086903000880
:1000B0006903000869030008690300086903000870
:1000C0006903000869030008690300086903000860
:1000D0006903000869030008690300086903000850
:1000E0006903000869030008690300086903000840
:1000F0006903000869030008690300086903000830
:10010000690300086903000869030008690300081F
:10011000690300086903000869030008690300080F
:1001200069030008690300086903000869030008FF
:1001300000000000000000000000000000000000BF
:1001400000000000000000000000000000000000AF
:10015000000000000000000000000000000000009F
:10016000000000000000000000000000000000008F
:10017000000000000000000000000000000000007F
:10018000000000000000000000000000000000006F
:10019000000000000000000000000000000000005F
:1001A000000000000000000000000000000000004F
:1001B000000000000000000000000000000000003F
:1001C000000000000000000000000000000000002F
:1001D000000000000000000000000000000000001F
:1001E0005FF8E0F100B583B000F0F2FB304B314A2C
:1001F0001360314A1360314B314A32498B4204D289
:100200001168196004330432F7E72A4B1A682E4B41
:100210009A4200D0FEE7284B1A682C4B9A42F9D13B
:10022000234B2B4A13602B4A13602B4B02E0002216
:100230001A600433294A9342F9D3254B1B6813B93A
:10024000244B1B6803B1FEE700F0CEFB694601A812
:1002500000F0B2FB224C234BE41AA4100025AC4260
:1002600014DC214C214BE41AA4100025AC4213DC11
:100270000099019800F0A2FC05461D4C1D4BE41AA4
:10028000A410002C0EDC284600F06EFB154B53F832
:10029000253098470135E2E7144B53F8253098474D
:1002A0000135E3E7013C134B53F824309847E8E766
:1002B000BABADECA0000002098000020000000202A
:1002C0005C1C00089C00002078563412325476984A
:1002D0009C000020B40000209C000020B8000020FA
:1002E0009403000894030008940300089403000892
:1002F000940300089403000808B5FFF773FF00BEDD
:10030000FEE71EF0040F0CBFEFF30880EFF3098047
:100310007146124A104700BEFEE700BEFEE71EF01F
:10032000040F0CBFEFF30880EFF3098071460C4A0D
:10033000104700BEFEE71EF0040F0CBFEFF308806D
:10034000EFF309807146074A104700BEFEE700BE82
:10035000FEE700BEFEE700BEFEE770471703000899
:0C036000330300084B03000800BEFEE75A
:10036C005C1C0008000000209C0000205C1C0008A5
:10037C0000000000000000009C000020B8000020DD
:08038C00000000000000000069
:10039400F8B505460C46494B98421BD003F58063DB
:1003A400984217D003F58063984213D003F5806315
:1003B40098420FD003F5806398420BD003F5806315
:1003C400984207D003F58063984203D0B2213C4899
:1003D40000F0F8FAE3786BB1042B0BD0282B09D08A
:1003E400482B07D0142B05D0102B03D01C2B01D085
:1003F400182B14D12388BBB1E37803F00F063046E1
:1004040013F0100F06D0A378013BDBB2022B10D8F7
:10041400A078304323785BB32E68002310E0B32127
:10042400274800F0CFFAE5E7B421254800F0CAFADE
:10043400E2E7BB21224800F0C5FAE9E76A6101332B
:10044400072B14D801229A40218832EA0101F6D1FF
:1004540099000F278F4026EA070600FA01F10E43A0
:10046400E1782829EAD04829E9D12A61E7E72E6012
:100474002388FF2B20D96E68002303E06A6116E00D
:100484002A610133072B16D803F1080101228A409F
:10049400218832EA0101F4D199000F278F4026EA1E
:1004A400070600FA01F10E43E1782829E6D0E17845
:1004B4004829E6D1E4E76E60F8BD00BF00080140BA
:1004C4001C1B00084FF6FF73038002238370042370
:1004D400C370704710B4294B5B6803F00C03042B02
:1004E4002BD0082B2CD013B1254B036001E0244BF7
:1004F400036022494B68C3F30313224CE35CDAB272
:100504000368D34043604A68C2F30222A25CD2B2B9
:1005140023FA02F282604A68C2F3C222A25CD2B217
:10052400D340C3604A68C2F3813217498A5CD2B2AD
:10053400B3FBF2F3036110BC7047114B0360D8E7BF
:100544000E4A53685268C3F38343023312F4803F64
:1005540009D00A4A526812F4003F09D00B4A02FB40
:1005640003F30360C5E7094A02FB03F30360C0E732
:10057400034A02FB03F30360BBE700BF0010024021
:1005840000127A00080000200400002000093D0049
:1005940038B504460D460E4B034003B920B940F26A
:1005A4004A410C4800F00EFA012D06D85DB90A4AFA
:1005B400936923EA0404946138BD40F24B41054831
:1005C40000F000FAF2E7044A93691C439461F3E7EC
:1005D4000200C0FF501B00080010024038B504465A
:1005E4000D460E4B184200D120B940F269410C4827
:1005F40000F0E8F9012D06D85DB90A4AD36923EA67
:100604000404D46138BD40F26A41054800F0DAF9C7
:10061400F2E7044AD3691C43D461F3E7003601814D
:10062400501B00080010024030B587B004460D4648
:10063400674B984213D0A3F5744398420FD003F547
:10064400806398420BD003F58063984207D003F58A
:100654008063984203D0B8215E4800F0B3F92B6858
:10066400013B5D4A934200F28580AB881BB1B3F530
:10067400805F40F08480EB8843B1B3F5805F05D0A0
:10068400B3F5005F02D0B3F5405F7DD12B892BB168
:10069400B3F5806F02D0B3F5C06F7AD16A8922F0C6
:1006A4000C039BB203B91AB9BD214A4800F08AF978
:1006B400AB8943B1B3F5807F05D0B3F5007F02D099
:1006C400B3F5407F6AD1AB8973B1414B9C420BD0E7
:1006D400A3F574439C4207D003F580639C4203D086
:1006E400C2213C4800F06EF9238A9BB2EA8823F4C5
:1006F400405313432382A3899BB2A98828896A891A
:1007040001430A4323F4B05323F00C031343A3819E
:10071400A38A9BB2AA8923F440731343A38201A83A
:10072400FFF7D8FE2A4B9C423DD0039BA28912F4CA
:10073400004F3AD103EB830303EB83032968890059
:10074400B3FBF1F1254BA3FB0123580905016423F5
:1007540000FB1313A28912F4004F2FD11B01323373
:100764001E4AA2FB0323C3F343132B439BB22381EF
:1007740007B030BDB921174800F024F975E7BA2154
:10078400144800F01FF976E7BB21124800F01AF96B
:100794007CE7BC210F4800F015F97FE7BE210D4826
:1007A40000F010F98FE7049BC0E703EB830303EB2E
:1007B400830329684900B3FBF1F1C3E7DA0032325D
:1007C400064BA3FB0232C2F3421242EA0503CDE711
:1007D40000380140801B00081FAA44001F85EB510C
:1007E4004FF41653036000238380C38003810C22DB
:1007F400428183817047000038B504460D46164B8C
:10080400984214D0A3F57443984210D003F5806342
:1008140098420CD003F58063984208D003F58063B6
:10082400984204D04FF4B1710C4800F0CBF8012D7C
:1008340007D865B9A3899BB223F400539BB2A38163
:1008440038BD40F26311054800F0BCF8F1E7A38914
:1008540043F40053A381F3E700380140801B0008F0
:1008640038B505460C46124B984214D0A3F5744390
:10087400984210D003F5806398420CD003F580634E
:10088400984208D003F58063984204D040F25F2177
:10089400084800F097F8B4F5007F03D2C4F30804C5
:1008A400AC8038BD4FF41871024800F08BF8F5E7BE
:1008B40000380140801B000838B505460C46274B1C
:1008C400984214D0A3F57443984210D003F5806382
:1008D40098420CD003F58063984208D003F58063F6
:1008E400984204D040F286311D4800F06BF8012C88
:1008F40013D0802C11D0402C0FD0202C0DD0102CD4
:100904000BD0B4F5807F08D0B4F5007F05D0082C57
:1009140003D0042C01D0022C07D1B4F5007F0AD0F7
:100924002B881C4218D1002038BD40F287310C4876
:1009340000F048F8F1E7094B9D42F1D0A3F5744368
:100944009D42EDD003F580639D42E9D040F28B31A6
:10095400034800F037F8E3E70120E5E700380140F9
:10096400801B0008FEE708B50120FFF7FBFF00002D
:1009740008B503460C4A12685AB10B4A106803338F
:1009840023F003030344094A934206D8064A13603A
:1009940008BD054A06491160EFE700F09BF90C23F6
:1009A40003604FF0FF30F3E7A000002000BC0020FC
:1009B400B800002001230360014B0B60704700BFA7
:1009C4001800002008B5FFF7CEFF000008B500F0BE
:1009D40073F8024A024B9A6008BD00BF0000000889
:1009E40000ED00E008B500F08FF808BD82B00023E8
:1009F400019300932C4A136843F4803313602A4B09
:100A04001B6803F400330093019B01330193009BA3
:100A14001BB9019BB3F5A06FF1D1234B1B6813F4F1
:100A2400003F06D001230093009B012B04D002B0A9
:100A3400704700230093F7E71C4B1A6842F010023A
:100A44001A601A6822F003021A601A6842F002025D
:100A54001A60A3F580535A685A605A685A605A68F3
:100A640042F480625A605A6822F47C125A605A68CE
:100A740042F4E8125A601A6842F080721A600A4B13
:100A84001B6813F0007FFAD0074B5A6822F0030268
:100A94005A605A6842F002025A60034B5B6803F0E2
:100AA4000C03082BF9D1C2E70010024000200240D9
:100AB40008B5FFF79BFF08BD08B5104B1A6842F054
:100AC40001021A6059680E4A0A405A601A6822F0F4
:100AD400847222F480321A601A6822F480221A6026
:100AE4005A6822F4FE025A604FF41F029A60FFF71C
:100AF400DFFF044B4FF000629A6008BD0010024013
:100B04000000FFF800ED00E01F4B5B6803F00C03EE
:100B1400042B15D0082B17D01BB11C4B1C4A1A6090
:100B240002E01A4B1A4A1A60174B5B68C3F30313AB
:100B3400184AD35CDAB215490B68D3400B6070478E
:100B4400124B134A1A60EFE70F4A53685268C3F313
:100B54008343023312F4803F0AD00B4A526812F4E2
:100B6400003F0BD00C4A02FB03F3084A1360DBE797
:100B7400094A02FB03F3054A1360D5E7044A02FB62
:100B840003F3024A1360CFE7001002403000002054
:100B940000127A002000002000093D0038B5044608
:100BA4000D46FFF75DFE80212046FFF785FE0028F5
:100BB400F9D0284638BD000000B587B001210C20CB
:100BC400FFF7E6FC05A8FFF77DFC2023ADF8143001
:100BD40010238DF8173002238DF8163005A92A4802
:100BE400FFF7D6FB01214FF40030FFF7F7FC042593
:100BF400ADF8145018238DF8173003238DF81630F0
:100C0400224C05A92046FFF7C3FB0823ADF8143096
:100C14008DF8175005A92046FFF7BAFB0DEB050028
:100C2400FFF7DEFD4FF4E13301930C23ADF80E30F2
:100C3400A4F544440DEB05012046FFF7F5FC012122
:100C44002046FFF7D9FD48212046FFF7A7FF65217D
:100C54002046FFF7A3FF6C212046FFF79FFF6C217E
:100C64002046FFF79BFF6F212046FFF797FF0D21DA
:100C74002046FFF793FF0A212046FFF78FFF044821
:100C840000F02EF8FEE700BF000C01400008014010
:100C9400B41B000838B504460D46FFF7E1FD80217A
:100CA4002046FFF709FE0028F9D0284638BD000089
:100CB40070B50E461546002405E03157C9B2044804
:100CC400FFF7E8FF0134A542F7D8284670BD00BFFE
:100CD40000440040014B1868704700BF34000020F6
:100CE4000FB40A4B13B51C6824B1A36913B9204689
:100CF40000F04EF805AB049AA1682046019300F079
:100D04005BF902B0BDE8104004B070473400002025
:100D1400002310B50446C0E9003383608181436633
:100D2400C281C0E904338361194608225C3000F0B3
:100D3400B9F8054B24626362044BA362044BE3627B
:100D4400044B236310BD00BF1515000837150008B8
:100D54006F15000893150008014900F085B800BF1D
:100D64006D18000870B568254A1E55430E4605F1F6
:100D7400740100F09FF8044640B10021C0E9001658
:100D84000C30A06005F1680200F08CF8204670BDBC
:100D9400836910B5044633BBC0E912330365124BB3
:100DA400124A1B688262984204BF0123836100F0E7
:100DB4001FF86060204600F01BF8A060204600F099
:100DC40017F80022E06004216068FFF7A1FF012208
:100DD4000921A068FFF79CFF02221221E068FFF7B7
:100DE40097FF0123A36110BDC41B00085D0D00081B
:100DF400F8B51B4B07461E68B36913B93046FFF7B5
:100E0400C7FF4836D6E90134013B03D5336833B113
:100E14003668F7E7B4F90C506DB16834F4E704218F
:100E24003846FFF79FFF30600028F1D10C230446B9
:100E34003B602046F8BD0B4B6566C4E90055A560D0
:100E4400C4E90335C4E905550822294604F15C00C8
:100E540000F028F8C4E90D55C4E91255E9E700BFCC
:100E6400C41B00080100FFFF2DE9F84380468946B2
:100E7400002600F1480414B93046BDE8F883D4E9EB
:100E84000175013F01D52468F5E7AB89012B07D92A
:100E9400B5F90E30013303D029464046C84706430E
:100EA4006835EEE703460244934200D1704703F8E5
:100EB400011BF9E770B5CD1C25F0030508350C2D91
:100EC40038BF0C25002D064601DBA94203D90C23AB
:100ED4003360002070BD00F075FD214A146821467E
:100EE40091B9204C23681BB9304600F001FB206007
:100EF4002946304600F0FCFA431C24D10C2330462A
:100F0400336000F060FDE4E70B685B1B18D40B2B27
:100F14000FD90B60CC18CD50304600F054FD04F1CD
:100F24000B00231D20F00700C31AD3D05A42E2500D
:100F3400D0E74B688C4216BF636013600C46EBE746
:100F44000C464968CCE7C41C24F00304A04205D035
:100F5400211A304600F0CCFA0130CFD02560DBE70F
:100F6400A8000020AC000020936810B4013B002BC3
:100F7400936007DA9469A34201DB0A2902D110BC09
:100F840000F00ABB1368581C10601970084610BCA6
:100F94007047F8B506460F461446D518AC4201D141
:100FA400002007E03A4614F8011B3046FFF7DCFF47
:100FB400431CF3D1F8BD00002DE9F04F9DB00C4661
:100FC40017460393064618B183690BB9FFF7E0FE91
:100FD4007B4B9C4257D17468A38918075DD523695C
:100FE400002B5AD00023099320238DF82930302375
:100FF4004FF0010B8DF82A30B846454615F8013BF1
:101004000BB1252B54D1B8EB070A0BD053463A4603
:1010140021463046FFF7BDFF013000F0C280099B36
:101024005344099398F80030002B00F0BA80002351
:101034004FF0FF32CDE90523049307938DF8533025
:101044001A93A846052218F8011B5E4800F0ACFC70
:10105400049B78BBD90644BF20228DF853201A077D
:1010640044BF2B228DF853202A782A2A2AD0A84656
:1010740000200A25079A414611F8013B303B092B11
:1010840069D960B324E0504B9C4201D1B468A3E712
:101094004E4B9C4208BFF4689EE72146304600F060
:1010A400DFFA00289ED04FF0FF301DB0BDE8F08F6E
:1010B400A846A2E7434A4546801A0BFA00F01843B3
:1010C4000490BEE7039A111D12680391002A01DB04
:1010D400079204E0524243F002030792049398F803
:1010E40000302E2B0ED198F801302A2B38D1039BD7
:1010F40008F102081A1D1B680392002BB8BF4FF0B9
:10110400FF330593324D032298F80010284600F06F
:101114004BFC40B14023401B03FA00F0049B08F150
:1011240001080343049398F800100622294808F1A3
:1011340001078DF8281000F037FC002837D0264B23
:101144001BBB039B073323F0070308330393099B5B
:101154004B44099350E705FB0232012088468AE795
:1011640000230A25194608F101080593404610F8A2
:10117400012B303A092A03D9002BC3D00591C1E7CA
:1011840005FB012101238046F0E703AB00932246CF
:10119400124B04A93046AFF30080B0F1FF3F814603
:1011A400D5D1A3895B063FF57EAF09987DE703ABF4
:1011B40000932246094B04A9304600F087F8ECE777
:1011C400E81B0008281C0008081C0008C81B0008AD
:1011D4002E1C0008321C000800000000970F0008B5
:1011E4002DE9F04791461F468A680B6906469342EB
:1011F400B8BF1346C9F8003091F843200C46DDF817
:10120400208012B10133C9F800302368990642BF27
:10121400D9F800300233C9F80030256815F0060506
:1012240007D104F1190AE368D9F800209B1AAB42EC
:1012340029DC94F843302268003318BF0123920656
:101244002ED404F1430239463046C047013021D040
:101254002368E56803F00603042B18BF0025D9F8BA
:1012640000204FF0000908BFAD1AA368226908BF27
:1012740025EAE5759342C4BF9B1AED181A344D450F
:101284001AD1002008E00123524639463046C047AF
:10129400013003D14FF0FF30BDE8F0870135C2E7DC
:1012A4003020E11881F843005A1C94F84510224478
:1012B400023382F84310C4E70123224639463046FC
:1012C400C0470130E6D009F10109D8E72DE9F04320
:1012D40001F1430C0C46097E85B06E29174606467B
:1012E40098460C9A00F0B38022D8632936D00AD8E5
:1012F400002900F0B980582900F0838004F14205E8
:1013040084F8421032E0642901D06929F6D12068BA
:101314001368050603F104012AD51B681160002B2C
:1013240003DA2D225B4284F843206F480A2239E015
:10133400732900F09D8008D86F2920D07029DDD151
:10134400236843F02003236003E0752917D078292C
:10135400D4D17823654884F8453055E0136804F106
:101364004205191D1B68116084F8423001238CE08A
:101374001B6810F0400F116018BF1BB2CFE7136851
:101384002568181D1060280601D51B6802E0680650
:10139400FBD51B886F2914BF0A220822524800215A
:1013A40084F843106568002DA560C0F2958021681B
:1013B40021F004012160002B3DD1002D40F08E80EE
:1013C4006546082A0BD12368DB0708D523696268C0
:1013D4009A42DEBF302305F8013C05F1FF35ACEB42
:1013E40005032361CDF800803B4603AA214630461D
:1013F400FFF7F6FE01304DD14FF0FF3005B0BDE8E8
:10140400F083394884F84510136821681D1D1B6852
:1014140015600A060BD5CA0744BF41F020012160BC
:101424001BB9226822F0200222601022B7E74D0681
:1014340048BF9BB2EFE76546B3FBF2F102FB113301
:10144400C35C05F8013D0B460029F5D1B9E71368E3
:101454002568181D6169106028061B6801D519608C
:1014640002E06A06FBD51980002365462361B9E7CB
:101474001368191D11601D6862680021284600F078
:1014840093FA08B1401B606063682361002384F809
:101494004330A7E723692A4639463046C04701301E
:1014A400AAD023689B0713D4E068039B9842B8BF73
:1014B4001846A3E701234A4639463046C04701305F
:1014C4009AD00135E368039A9B1AAB42F2DCEBE74E
:1014D400002504F11909F5E7002BACD1037804F1D8
:1014E400420584F842306CE7391C00084A1C0008A5
:1014F40038B50023054C054608462360FFF738FA43
:10150400431C02D1236803B12B6038BDB000002016
:1015140010B50C46B1F90E1000F0A2FA0028ABBFCA
:10152400636DA3891B1823F48053ACBF6365A38147
:1015340010BD2DE9F0411F468B890546DB050C469D
:10154400164605D502230022B1F90E1000F0B6F9B3
:10155400A389324623F48053A381B4F90E103B4689
:101564002846BDE8F04100F069B810B50C46B1F961
:101574000E1000F0A3F9431CA38915BF606523F482
:10158400805343F48053A38118BFA38110BDB1F9E4
:101594000E1000F0D3B80000F8B50E461446054608
:1015A40018B183690BB9FFF7F3FB214B9C422AD195
:1015B4006C68A369A360A3891A072ED5236963B352
:1015C40023692068F6B2C01A63693746834204DC93
:1015D4002146284600F048F928BBA3680130013BA6
:1015E400A36023685A1C22601E706369834204D07E
:1015F400A389DB0719D50A2E17D12146284600F006
:1016040033F990B10FE00B4B9C4201D1AC68D0E7A9
:10161400094B9C4208BFEC68CBE72146284600F002
:101624001FF80028CCD04FF0FF373846F8BD00BF74
:10163400E81B0008081C0008C81B000838B505464C
:10164400084611460022054C22601A46FFF730FB7B
:10165400431C02D1236803B12B6038BDB0000020C5
:10166400324B70B51D6806460C4625B1AB6913B9FB
:101674002846FFF78DFB2E4B9C420FD16C68B4F9C2
:101684000C309AB215072CD4D00611D4092232603A
:1016940043F04003A3814FF0FF303EE0254B9C42D2
:1016A40001D1AC68EBE7244B9C4208BFEC68E6E749
:1016B400510712D5616B41B104F14403994202D040
:1016C400304600F081F900236363A38923F02403E7
:1016D400A3810023636023692360A38943F0080383
:1016E400A38123694BB9A38903F42073B3F5007F65
:1016F40003D02146304600F017F9A28912F0010305
:101704000CD00023A36063695B42A361236953B9CE
:10171400B4F90C3013F08000BAD170BD920758BFF1
:101724006369A360F2E70020F7E700BF34000020FC
:10173400E81B0008081C0008C81B000838B5002373
:10174400054C05460846236000F0BEF9431C02D14F
:10175400236803B12B6038BDB00000208A892DE9CD
:10176400F041054610070C4658D44B68002B05DCA5
:101774000B6C002B02DC0020BDE8F081E66A002E31
:10178400F9D0002312F480522F68216A2B6032D0E2
:10179400606DA3895A0705D56368C01A636B0BB1E2
:1017A400236CC01A00230246E66A216A2846B04721
:1017B400431CA38906D129681D2948D8294ACA404F
:1017C400D60744D5002262602269D904226004D578
:1017D400421C01D12B6803B96065616B2F6000293D
:1017E400C9D004F14403994202D0284600F0ECF831
:1017F40000206063C0E701232846B047411CC8D1DC
:101804002B68002BC5D01D2B01D0162B01D12F60C6
:10181400B1E7A38943F04003A381ADE70F69002F2B
:10182400A9D0930718BF00230E6808BF4B69A6EB25
:1018340007080F608B60B8F1000F9CDD43463A4601
:10184400216A2846A66AB047002806DCA38943F02B
:101854004003A3814FF0FF308EE70744A8EB000854
:10186400E9E700BF0100402038B50B6905460C4686
:10187400DBB118B183690BB9FFF78AFA0C4B9C42B0
:1018840009D16C68B4F90C307BB121462846BDE817
:101894003840FFF763BF074B9C4201D1AC68F1E7C6
:1018A400054B9C4208BFEC68ECE7002038BD00BF44
:1018B400E81B0008081C0008C81B000838B50546CA
:1018C400084611460022054C22601A4600F014F91D
:1018D400431C02D1236803B12B6038BDB000002043
:1018E40070B50E46B1F90E1096B0002914461D4687
:1018F40007DA00232B60B3891A0610D44FF48063EF
:101904000EE06A4600F0BEF80028F2DB019A02F409
:101914007042A2F500535A425A412A60EEE740232E
:101924000020236016B070BD8B8973B59D070646F1
:101934000C4607D504F14703236023610123636147
:1019440002B070BD01AB6A46FFF7CAFF00990546B5
:101954003046FFF7AFFA48B9B4F90C309A05EFD422
:1019640023F0030343F00203A381E3E70D4BB362C7
:10197400A389206043F08003A381009B20616361FD
:10198400019B5BB1B4F90E10304600F08DF828B11C
:10199400A38923F0030343F00103A381A3891D4317
:1019A400A581CDE75D0D000810B5C9B2024490428F
:1019B400034601D1002303E01C7801308C42F6D1A8
:1019C400184610BD7047704738B50546002943D006
:1019D40051F8043C0C1F002BB8BFE418FFF7F2FFCA
:1019E4001E4A1368104633B9636014602846BDE884
:1019F4003840FFF7E8BFA3420BD92168621893422D
:101A040001BF1A685B685218226063600460EDE7E6
:101A140013465A680AB1A242FAD919685818A04262
:101A24000BD120680144581882421960DED1106835
:101A34005268014419605A60D8E702D90C232B601C
:101A4400D4E7206821188A4201BF11685268091836
:101A5400216062605C60C9E738BD00BFA800002057
:101A640038B50546084611460022054C22601A4640
:101A740000F04AF8431C02D1236803B12B6038BD3F
:101A8400B000002038B50023064C05460846114630
:101A9400236000F021F8431C02D1236803B12B60BA
:101AA40038BD00BFB000002038B50023054C054602
:101AB4000846236000F018F8431C02D1236803B1E0
:101AC4002B6038BDB00000205822024B4FF0FF308D
:101AD4001A607047B00000205822024B4FF0FF30CC
:101AE4001A607047B00000205822024B00201A6090
:101AF400704700BFB00000205822024B4FF0FF3067
:101B04001A607047B00000205822024B4FF0FF309B
:101B14001A607047B00000202E2E2F7379737465FD
:101B24006D2F7372632F73746D333266312D73743A
:101B3400647065726970682F73746D333266313006
:101B4400785F6770696F2E63000000002E2E2F737C
:101B5400797374656D2F7372632F73746D3332668A
:101B6400312D7374647065726970682F73746D338A
:101B740032663130785F7263632E63002E2E2F73CA
:101B8400797374656D2F7372632F73746D3332665A
:101B9400312D7374647065726970682F73746D335A
:101BA40032663130785F75736172742E63000000A1
:101BB40048656C6C6F20616761696E0D0A000000F6
:101BC40038000020000000000000000000000000B9
:101BD4000000000000000000000000000000000001
:101BE40000000000000000000000000000000000F1
:101BF40000000000000000000000000000000000E1
:101C040000000000000000000000000000000000D0
:101C140000000000000000000000000000000000C0
:101C240000000000232D302B2000686C4C006566FA
:101C34006745464700303132333435363738394119
:101C4400424344454600303132333435363738392F
:071C54006162636465660034
:101C5C007856341202040608000000000102030446
:101C6C000102030406070809A4000020000000007C
:101C7C000000000000000000010203040607080930
:101C8C0000A24A043800002000000000E81B0008F5
:101C9C00081C0008C81B0008000000000000000021
:101CAC000000000000000000000000000000000028
:101CBC000000000000000000000000000000000018
:101CCC000000000000000000000000000000000008
:101CDC0000000000000000000000000000000000F8
:0C1CEC0000000000000000003254769858
:04000005080001E509
:00000001FF
