:020000040800F2
:1000000000C000209D020008A1020008A302000811
:10001000B9020008BB020008D1020008000000007D
:10002000000000000000000000000000E7020008DF
:10003000E902000800000000EB020008ED020008E1
:100040000103000801030008010300080103000880
:100050000103000801030008010300080103000870
:100060000103000801030008010300080103000860
:100070000103000801030008010300080103000850
:100080000103000801030008010300080103000840
:100090000103000801030008010300080103000830
:1000A0000103000801030008010300080103000820
:1000B0000103000801030008010300080103000810
:1000C0000103000801030008010300080103000800
:1000D00001030008010300080103000801030008F0
:1000E00001030008010300080103000801030008E0
:1000F00001030008010300080103000801030008D0
:1001000001030008010300080103000801030008BF
:1001100001030008010300080103000801030008AF
:10012000010300080103000801030008010300089F
:1001300000000000000000000000000000000000BF
:1001400000000000000000000000000000000000AF
:10015000000000000000000000000000000000009F
:10016000000000000000000000000000000000008F
:10017000000000000000000000000000000000007F
:10018000000000000000000000000000000000006F
:10019000000000000000000000000000000000005F
:1001A000000000000000000000000000000000004F
:1001B000000000000000000000000000000000003F
:1001C000000000000000000000000000000000002F
:1001D000000000000000000000000000000000001F
:1001E0005FF8E0F107B500F0D1F9214A214B22492F
:1001F0008B4226D30021214B214A934226D300F083
:10020000D1F901A9684600F0B9F900251D4E1E4C30
:10021000A41BA410AC421CDC00251C4E1C4CA41BCF
:10022000A410AC421ADCDDE9000100F081FA0646B8
:10023000184D194C641BA410002C14DC304600F03F
:100240009AF952F8040F43F8040BD1E743F8041B62
:10025000D3E756F8253098470135DBE756F82530C7
:1002600098470135DDE7013C55F824309847E3E72E
:10027000F4070008000000203000002030000020BB
:10028000340000202C0300082C0300082C03000875
:100290002C0300082C0300082C0300081448004716
:1002A000FEE71EF0040F0CBFEFF30880EFF30980A8
:1002B0007146104A1047FEE7FEE71EF0040F0CBF20
:1002C000EFF30880EFF3098071460B4A1047FEE711
:1002D0001EF0040F0CBFEFF30880EFF309807146A6
:1002E000064A1047FEE7FEE7FEE7FEE7704700001C
:1002F000E5010008B7020008CF020008E502000887
:02030000FEE716
:10030400F80700080000002030000020F80700086B
:100314000000000000000000300000203400002035
:080324000000000000000000D1
:10032C00CA782DE9F041D30648BF8B780E8802F0CD
:10033C000F0548BF1D4316F0FF0F1AD000214FF0D8
:10034C00010C4FF00F0E03680CFA01F737EA0604A4
:10035C000BD18C000EFA04F823EA080305FA04F416
:10036C00282A43EA040326D1476101310829EBD13D
:10037C000360FF2E1DD908244FF0010C4FF00F0E17
:10038C0041680CFA04F737EA06030ED104F18043F6
:10039C00083B9B000EFA03F821EA080105FA03F367
:1003AC00282A41EA03010AD147610134102CE8D113
:1003BC004160BDE8F081482A08BF0761D5E7482AAB
:1003CC0008BF0761F1E74FF6FF73038002238370C8
:1003DC000423C370704700001B4A10B5536803F028
:1003EC000C03082B1FD0194B03605368184CC3F334
:1003FC000313E15C0368CB4043605168C1F30221F5
:10040C00615C23FA01F181605168C1F3C221615C26
:10041C00CB40C36052680F49C2F381328A5CB3FB94
:10042C00F2F3036110BD53685168C3F38343CC03EB
:10043C0003F1020302D408494B43D5E75168890301
:10044C00F9D40249F8E700BF0010024000127A000C
:10045C00040000200000002000093D00044B9A69B4
:10046C0011B110439861704722EA0000FAE700BF0F
:10047C0000100240044BDA6911B11043D861704787
:10048C0022EA0000FAE700BF0010024030B50D462A
:10049C000446038A8A899BB2C98823F440530B43D0
:1004AC0003828389A98823F4B05323F00C030B43F4
:1004BC00298987B00B4369890B438381838A9BB25B
:1004CC0023F440731343838201A8FFF785FFDDE912
:1004DC000331154A944218BF19461923A2894B437C
:1004EC00296810044CBF49008900B3FBF1F1642565
:1004FC00B1FBF5F3A2891801120405FB13130BD5FC
:10050C00DA003232B2FBF5F202F0070242EA0003E3
:10051C009BB2238107B030BD1B013233B3FBF5F323
:10052C0003F00F030343F3E7003801404FF4165276
:10053C000023C0E900234FF440228381826070477E
:10054C00838919B143F400538381704723F400531A
:10055C001B041B0CF8E7C1F308018180704703886A
:10056C00194214BF01200020704708B500F016F89E
:10057C0001230360014B0B60704700BF1400002087
:10058C0008B500F01DF8024A024B9A6008BD00BF86
:10059C000000000800ED00E000F08AB8BFF34F8FB8
:1005AC000549064BCA6802F4E0621343CB60BFF303
:1005BC004F8F00BFFDE700BF00ED00E00400FA051F
:1005CC00374B82B01A6842F001021A605968354AFA
:1005DC000A405A601A6822F0847222F480321A603F
:1005EC001A6822F480221A605A6822F4FE025A60B9
:1005FC004FF41F029A600022009201921A6842F492
:10060C0080321A601A6802F400320192009A0132A8
:10061C000092019A1AB9009AB2F5A06FF2D11A6839
:10062C0012F4003218BF01220192019A012A30D132
:10063C001D4A116841F010011160116821F003018D
:10064C001160116841F0020111605A685A605A68D1
:10065C005A605A6842F480625A605A6822F47C12DA
:10066C005A605A6842F4E8125A601A6842F0807272
:10067C001A601A689201FCD55A6822F003025A607B
:10068C005A6842F002025A605A6802F00C02082AB8
:10069C00FAD14FF00062054B9A6002B0704700BF70
:1006AC00001002400000FFF80020024000ED00E0C6
:1006BC00104B11495A6802F00C02082A0AD00F4A52
:1006CC000A605B680E4AC3F30313D25C0B68D34019
:1006DC000B6070475A685868C2F38342C00302F13A
:1006EC00020202D407484243EAE758688003F9D46F
:1006FC000248F8E7001002402C00002000127A009B
:10070C001C00002000093D0038B505460C46FFF7DB
:10071C0022FF80212846FFF722FF0028F9D020462F
:10072C0038BD00007FB501211420FFF797FE01A80A
:10073C00FFF749FE2023ADF8043010238DF8073065
:10074C00022301A927488DF80630FFF7E9FD0121A6
:10075C004FF40030FFF78EFE182304248DF8073079
:10076C0003230DEB04011F488DF80630ADF804404F
:10077C00FFF7D6FD08230DEB04011A48ADF8043041
:10078C008DF80740FFF7CCFD02A8FFF7CFFE4FF422
:10079C00E13302930C2302A91348ADF81230FFF792
:1007AC0075FE01211048FFF7CBFE48210E48FFF7DC
:1007BC00ABFF65210C48FFF7A7FF6C210A48FFF738
:1007CC00A3FF6C210848FFF79FFF6F210648FFF736
:1007DC009BFF0D210448FFF797FF0A210248FFF702
:0C07EC0093FFFEE70008014000440040BD
:1007F80002040608000000000102030401020304C9
:100808000607080930000020000000000000000072
:1008180000000000010203040607080900A24A04B8
:04000005080001E509
:00000001FF
